:100000000A128A11FC2FFF1B0D2883137F188317F8
:100010000008840A0319FF0A080000308A00040857
:10002000840A82070034013400340A340034643412
:100030000034E834033410342734743465346D34B8
:1000400070345F3476343A34003425346434003408
:10065C008130831203139F008E30831603139F0087
:10066C000800831203131F151F193A2B1E08F100E3
:10067C00831603131E08F00008007808F0007908B0
:10068C00F100F2018E30FB007B08F300F4010A123A
:10069C008A11D2247008F8007108F9007208FA0067
:1006AC000800F401F501701C612B7208F4070318A3
:1006BC00F50A7308F50701300310F20DF30DFF3E38
:1006CC00031D622B01300310F10CF00CFF3E031DD7
:1006DC00692B70087104031D592B7508F1007408FF
:1006EC00F000080002300A128A117C240A128A11C6
:1006FC0028300A128A117C240A128A110C300A1230
:10070C008A117C240A128A1106300A128A117C245E
:10071C000A128A1101300A128A117C240A128A11D7
:10072C0080300A128A117C24080074088312031387
:10073C00FF00730884000A128A1103200A128A111E
:10074C00003A03190800740883120313FF0073089E
:10075C0084000A128A1103200A128A110A128A11C1
:10076C002C240A128A110130F3070318F40A9B2B6C
:10077C00780879040319EB2BFD01FD0AF91BD22B28
:10078C0001300310F80DF90DFF3E031DC72B01308E
:10079C00FC007C08FD07C42B79087B02031DD82BB9
:1007AC0078087A02031CE02B7808FA027908031CFB
:1007BC00FB03FB0201300310F90CF80CFF3E031D88
:1007CC00E12B0130FD02031DD22B7B08F9007A08C6
:1007DC00F8000800F501F601700871040319272CC4
:1007EC00F701F70AF11B062C01300310F00DF10D87
:1007FC00FF3E031DFB2B0130F4007408F707F82BA8
:10080C0001300310F50DF60DFF3E031D072C71088A
:10081C007302031D132C70087202031C1C2C70082D
:10082C00F2027108031CF303F30275140130031078
:10083C00F10CF00CFF3E031D1D2C0130F702031DC3
:10084C00062C7608F1007508F0000800F20072081A
:10085C00F0398312031388000814FD30F00070087F
:10086C00880508150D30F100FB30F000F00B3C2C26
:10087C00F10B3C2C412CFB30F0007008831203135D
:10088C0088050D30F100FB30F000F00B4B2CF10B18
:10089C004B2C502C7208F00003300310F00DFF3E6F
:1008AC00031D532C0310700D8312031388000814BE
:1008BC00FD30F0007008880508150D30F100FB3094
:1008CC00F000F00B672CF10B672C6C2CFB30F0005C
:1008DC0070088312031388050D30F100FB30F00013
:1008EC00F00B762CF10B762C7B2C0800F2007208A6
:1008FC00F039831203138800FE30F000700888056D
:10090C00FD30F0007008880508150D30F100FB3043
:10091C00F000F00B8F2CF10B8F2C942CFB30F00093
:10092C0070088312031388050D30F100FB30F000C2
:10093C00F00B9E2CF10B9E2CA32C7208F0000330B4
:10094C000310F00DFF3E031DA62C0310700D831237
:10095C0003138800FE30F00070088805FD30F000AD
:10096C007008880508150D30F100FB30F000F00B15
:10097C00BD2CF10BBD2CC22CFB30F0007008831287
:10098C00031388050D30F100FB30F000F00BCC2C7C
:10099C00F10BCC2CD12C080073080319DA2C72083B
:1009AC0071047004031DED2C0030F0000030F100D8
:1009BC000030F20008000130F5007508F307013033
:1009CC000310F20CF10CF00CFF3E031DE62CFE3074
:1009DC0072050319082DE12C0130F5007508F30799
:1009EC000130F007003003180130F1070030031814
:1009FC000130F20701300310F20CF10CF00CFF3E49
:100A0C00031D012DFF3072050319172DF22C013037
:100A1C00F30201300310F00DF10DF20DFF3E031D3A
:100A2C00102DF11B1D2D0230730203180D2D7318A0
:100A3C00252DFF30F0057F30F105FF30F205031056
:100A4C00F30C7308F500F601F70110300310F50DE7
:100A5C00F60DF70DFF3E031D2C2D7508F0047608DE
:100A6C00F1047708F204740803190800F21708005F
:100A7C00831203133008B4003108B5003208B600F5
:100A8C000310350D360DB7003708BD003D08031DAA
:100A9C00582D0030B3000030B2000030B1000030EF
:100AAC00B00008003008B4003108B5003208B600B8
:100ABC0017300310B60CB50CB40CFF3E031D5F2DA4
:100ACC003408B7003708B800B117FF30B005FF3055
:100ADC00B1050030B2053008B9003108BA0032084F
:100AEC00BB00BC018E30BD02BD1F9A2D3D08803A63
:100AFC008F3E03188A2D0030B3000030B200003056
:100B0C00B1000030B000080001300310BC0CBB0C6D
:100B1C00BA0CB90CFF3E031D8B2D0130B400340808
:100B2C00BD070319B52D8A2D18303D02031CB22DBB
:100B3C000030B3000030B2000030B1000030B00023
:100B4C0008000130B4000310B90DBA0DBB0DBC0D7B
:100B5C00B40BA92D0130BD023D08031DA72D38088B
:100B6C000319C32DB909BA09BB09BC09B90A031980
:100B7C00BA0A0319BB0A0319BC0A3C08B3003B08A8
:100B8C00B2003A08B1003908B0000800831603130C
:100B9C008801FF30850083120313850188010A1236
:100BAC008A112E230A128A110A128A1178230A1228
:100BBC008A1161300A128A112C240A128A1102300D
:100BCC0083120313C0000430BF00B930BE00BE0B4B
:100BDC00ED2DBF0BED2DC00BED2DF42D01300A12B8
:100BEC008A117C240A128A110A128A1137230A12DA
:100BFC008A11710883120313CC007008CB000530E6
:100C0C00F2000030F3004C08F1004B08F0000A121F
:100C1C008A1157230A128A117108F9007008F8001A
:100C2C000A128A1143230A128A11780883120313B9
:100C3C00A3007908A4007A08A500D730A0002330BF
:100C4C00A1004130A2000A128A1170260A128A11E0
:100C5C00831203132008B0002108B1002208B2004F
:100C6C000A128A113E250A128A11831203133108C3
:100C7C00CE003008CD001330BE003E08A0004E0858
:100C8C00A2004D08A10041300A128A1128270A122D
:100C9C008A110B30F3008030F4000A128A119B2366
:100CAC000A128A114130F3000030F4000A128A1142
:100CBC009B230A128A11063083120313C0001330CF
:100CCC00BF00AD30BE00BE0B692EBF0B692EC00B32
:100CDC00692EF42D831203132308A6002408A70001
:100CEC002508A8000310270D280DA9002908AE001F
:100CFC002E08031D882E0030A0000030A10000300B
:100D0C00A20008002008A6002108A7002208A800BD
:100D1C000310270D280DA9002908AF002F08031D6B
:100D2C009E2E0030A0000030A1000030A200080070
:100D3C000030AB000030AC000030AD0089302F0724
:100D4C00A6002608AE022308A6002408A700250842
:100D5C00A80010300310A80CA70CA60CFF3E031D16
:100D6C00B02E2608A9002908AF002008A6002108EB
:100D7C00A7002208A80010300310A80CA70CA60C82
:100D8C00FF3E031DC22E2608A9002908AF0680309D
:100D9C00A6002608AF05A417FF30A305FF30A40555
:100DAC000030A505A117FF30A005FF30A1050030CC
:100DBC00A2051830A6002608AA0001300310AB0DBE
:100DCC00AC0DAD0DFF3E031DE42E22082502031DC4
:100DDC00F52E21082402031DF52E20082302031CE6
:100DEC00022F2008A3022108031C210FA4022208B1
:100DFC00031C220AA5022B1401300310A30DA40D11
:100E0C00A50DFF3E031D032F0130AA02031DE32E87
:100E1C002B08F0002C08F1002D08F2002E08A6007B
:100E2C002608F3002F08A7002708F4000A128A11DD
:100E3C00D224700883120313A0007108A100720859
:100E4C00A200080083120313AB002130A300230877
:100E5C00A6000130A007FF30200784000A128A1177
:100E6C000D200A128A11A3002308AC002C080319C8
:100E7C00F72F25302C0603194F2F2C08A3002B0815
:100E8C0084002308831380000130A3002308AB07E0
:100E9C002F2FA7010130A007FF30200784000A1272
:100EAC008A110D200A128A11AC00003A0319F72F8F
:100EBC00643A0319652F0D3A0319652F2F2F260855
:100ECC00840083130008A900840A0008AA000230D9
:100EDC00A3002308A607AA1F7C2F0330A300230816
:100EEC00A704A909AA09A90A0319AA0AAC01AC0A00
:100EFC0005302C060319A32F2C08A3002307013E51
:100F0C0084000A128A110D200A128A11A4000A12F6
:100F1C008A110D200A128A11A50025082A02031D28
:100F2C00992F24082902031CA32F0130A3002308A6
:100F3C00AC0705302C06031D822F27080339031933
:100F4C00B22F2D30A3002B088400230883138000BC
:100F5C000130A3002308AB072C08A3002308A8002A
:100F6C00FF30A3002308A807280A03192F2F0A30E3
:100F7C00F8000030F9002808A3002307013E840084
:100F8C000A128A110D200A128A11F0000A128A1113
:100F9C000D200A128A11F1002A08F3002908F20028
:100FAC000A128A11F0230A128A117108FB007008C8
:100FBC00FA000A128A11BE230A128A117808303EEE
:100FCC0083120313A4002408AC002C08A3002B08E4
:100FDC0084002308831380000130A3002308AB078F
:100FEC00B62F2B08840083138001080083010A129A
:040FFC008A11CC2D5D
:00000001FF
